:400000000080002011000000D1070000D107000008B5044B1A6803F53F5302331A6000F0DFFB00BFFA46004010B5054C237833B9044B13B10448AFF300800123237010BDED
:40004000C082FF1F00000000181E0000084B10B51BB108490848AFF300800848036803B910BD074B002BFBD0BDE81040184700BF00000000C482FF1F181E0000C880FF1FA4
:400080000000000008B5002000F0E4FE08BD00BF684620F007018D4619B572B6EFF311841E4B1B68DBB20F2B10D9103B23F0030202F1604202F564421168DB0003F0180374
:4000C000E0229A400A4022FA03F306E00F2B03D1134B1B681B0E00E0002383F31188114A136801331360012B01D101F0F3FC62B6FFF7C8FF72B684F3118801F0A5F8094A6F
:400100001368013B13601BB901F0EDFC01F0B1FC62B6BDE819408546704700BF04ED00E020ED00E04883FF1F08B562B601F0D2FB45F6BF52054B1A60054A136843F00203A0
:400140001360002001F06EF9FBE700BF14E000E010E000E008B501F0C9F90C4A136843F00503136001F04EFC01221146002000F0F3FC032000F07CFC012000F079FC042077
:4001800000F076FC01F094F908BD00BF10E000E000BFFDE738B5124B1968124BDA68196000219960022119715569936873B13DB90CE0996855F8240000F0F2FE013400E098
:4001C0000024084BDB681A699442F2D3054B1B79022B03D10348C3685B68984738BD00BFCC80FF1FF880FF1F10F0010F28D030B583B0144B1B88ADF80430ADF80030002185
:4002000043F307238B4200DD59000F4BDA68196000219960022119715569936873B13DB90CE0996855F8240000F0BAFE013400E00024054BDB681A699442F2D303B030BD1C
:40024000704700BFDC80FF1FCC80FF1F38B51E4801F05AFB1D4B9B68092B05D81B4B1C681B4801F051FB03E000241A4801F04CFB194BDA681C60002199600221197155693D
:40028000936873B13DB90CE0996855F8240000F087FE013400E000240F4BDB681A699442F2D30E4801F030FB0B4B1B79022B04D10948C3685B68984701E04FF0FF3010B1D6
:4002C000074801F021FB38BD1C1E0000CC80FF1F441E0000701E0000E880FF1F8C1E0000C41E000070B582B0244B9B681A68002A3DD0224A128802A820F8082D1B68984726
:400300000546E8B9BDF80010ADF804101B4B9A6819800021596002219970566993683BB33EB925E0996856F8240000F039FE013400E00024114B9B681A699442F2D317E061
:400340000E4B03229A709B68DE69DB6883B13EB90EE0D96856F8240000F022FE013400E00024064B9B689A699442F2D300E0002515B1034801F0C8FA02B070BDDC80FF1F3F
:40038000F81E000000B583B000230193012000F087FE01A9032000F0E3FD019800F0B2FD019A0121014800F051F8EFE7181F000010B5084C22680221074800F02FF823681A
:4003C0000133236013F5807F01D90022226001F06FF810BDDC82FF1F241F000000B583B000230193022000F05BFE01A9042000F0B7FD019800F086FD019A0121014800F05F
:4004000025F8EFE7381F000008B5034B13F8110001F0AEFA002008BD441F0000F8B506460F46154600240DE006EBC4039A88B5FBF2F302FB13531BB956F834300020984759
:400440000134A4B2BC42EFD30020F8BDF8B505460E461746002409E005EBC4035868384202D055F8343098470134A4B2B442F3D30020F8BD10B582B0044600F027F80DF1E9
:4004800006010DF1070000F029F89DF9073023709DF806306370002002B010BD10B5036843B9012001F0BCFA002211461046FFF7ABFF08E00446002001F0B2FA0022217875
:4004C0001046FFF7A1FF002010BD00BF08B501F0A1F801F0B3F8002008BD00BF70B506460D46002001F0AEF8002001F0B7F884B2012001F0B3F880B2D4F5006400D50F3438
:4005000044F307143470D0F5006000D50F3040F307102870002070BDFEE700BFF0B40022174611E050F82760F3B226F0FF0608E001EB420511F812406D78A5550132013B52
:40054000DBB2002BF4D10137242FEBD9F0BC704708B50A46002101F056FC08BD38B50024284B1C80582202331A700E2202331A801823254A137019250232158002321370D3
:400580000222224B1A7008224FF040231A70032103F5007319701E4B1B78DBB21D490B701D4B1A8041F25122023B1A800CE01B4B1B7803F0010343EA440404F003044FF43A
:4005C000F07001F039FA013D0DB1032CEFD115B90320FFF7A1FF124B4FF480721A8007221A7000220F490A704820023108701A700222033B1A700C4A137843F00703137008
:4006000038BD00BF80400040864000400043004008010049A146004022420040254200400440004006400040A2430040F8B5164B1B78DBB2154E3478E4B2154F3D78EDB2FF
:4006400003F00701134A11701B090132137044F00303337045F003033B7003220E4B1A7040230E4A13700232137030220C4B1A70202203331A700A2000F0F0F93D7034707E
:400680004422084B1A70F8BDCF010049F8460040F94600406E5800400D51004001590040205B00407658004008B501F0A1FB08BD38B572B6324A137843F004031370002419
:4006C0000CE0304D630019194A0011462A44084691882858FFF73CFF0134E4B2062CF0D929494FF09040FFF719FF04212748FFF72FFF042226492748FFF7D6FF264A1378FE
:4007000043F0020313701032137843F002031370224C237843F040032370A2F58632513A137843F01003137008221D491D48FFF7BBFF0A221C491D48FFF7B6FF08221C4961
:400740001C48FFF7B1FF08221B491C48FFF7ACFF1B4A137843F0080313701A4D61232B70FFF7FCFE81232B700122174B1A70FFF75DFF0E2221461548FFF796FF38BD00BFE2
:40078000E8460040EC2100009400004800760040140800480876004003500140A0430040F007004802510040F8070048C051004004080048125100400C08004822510040E3
:4007C000224300400048004004000840B043004008B501F0E1FA03680C2B00D1FEE7FEE708B5104E104D16E029686B68AC68002204E051F8040B43F8040B0432A242F8D116
:40080000E868002203E0002143F8041B04328242F9D11035013E002EE6D101F0C3FAFFF783FCFEE7010000009024000008B5114A114B1A60114A136843F4007313600023FA
:400840000AE0032B03D80E4A52F8231000E00D490D4A42F8231001332F2BF2D90B4B1A780B4B1A70084A0B4B1A60FFF721FF00F013F808BD0004FA050CED00E014ED00E0E0
:4008800000000000D10700000080FF1FBC760040C080FF1F08ED00E00B4A7F2313708021517007E0DA0002F1804202F5F042013BDBB21370002BF5D1DB0003F1804303F5DB
:4008C000F04300221A7070470881FF1F172815D831B103010A495A5C42F020025A5405E0030107495A5C02F0DF025A540001044A835C43F001038354002070470120704743
:400900001070004017280CD80001074BC1180A7942F004020A71C25C42F00102C254002070470120704700BF1070004017280BD80001064A835C03F0F103490001F00E0159
:400940001943815400207047012070471070004041F6FF73994201D14FF4005141F6FF739A4201D14FF40052172808D8C00000F1804000F5EC408180C28000207047012015
:40098000704700BF172805D8034B03EB0010417200207047012070471070004017281BD810B4C00000F1804404F5EC44D201D2B201F07F01114321709DF804201201D2B2A6
:4009C00003F00F03134363709DF8083003F00F03A3700020E07001E00120704710BC704710B501F031F80A4B5B78182B0BD9084A1478013B5370E30003F1804303F5F04368
:400A00001B78137000E0FF2401F022F8204610BD0881FF1F10F0800F0CD111F4704F0BD1C00000F1804000F5F04001808270C37000207047012070470120704710F0800F5A
:400A400008D1C00000F1804000F5F0408180C280002070470120704701BE704708B5034B1B7A00FB03F000F0E7FF08BD1081FF1F38B5EFF3108572B604284ED82D4B53F826
:400A80002030002B4BD02B4A013B42F820302A4B53F82030032B07D10222274B43F820200022264B43F8202000F03EFC244B1B68002B36D1234B1C6800F014FCB0F1FF3F11
:400AC00031D0214B53F82020204B1B689A422CD9B4F1FF3F03D00221174A42F824101C4A52F820201343194A13600022124B43F8202000F0B3FB174B53F820304BB10024B6
:400B0000144B43F8204040F0004000F0F5FF20460CE000F0F1FF002008E0032006E0042004E0002002E0002000E0002085F3108838BD00BF6881FF1F1482FF1F0883FF1FD2
:400B40004883FF1FFC81FF1F9C2300002483FF1F80230000E082FF1FF8B5EFF3108472B628BB00EB4005AB00184DEB5803EB4306B500174E75598D421BD34AB103EB43038E
:400B80009E00134B1E44B3689A4214D3954214D3A9B103010F4DEB589BB90301EE180127EF507260013900F087F800200AE0032008E0082006E0082004E0082002E008209D
:400BC00000E0072084F31088F8BD00BF382300004C2300007883FF1F18B108B5C368984708BD704708B508B1406800E00020042816D80C4B53F8203093B10A4A013B42F844
:400C00002030094B53F82030032B07D10222064B43F820200022054B43F8202000F084FB08BD00BF6881FF1F1482FF1F0883FF1F18B1034640689B6801E0002318460428F0
:400C40001DD80F4A52F82020CAB10E4A52F82010032914D010B50C4C54F820201A4344F820200A4A52F82020134207D0012905D10222044B43F8202000F056FB10BD704700
:400C8000582300001482FF1F0883FF1FF482FF1F80B108B50378012B06D013B1032B06D008BDFFF79FFF08BDFFF7C2FF08BDFFF793FF08BD704700BF30B400EB4002930094
:400CC000214AD258214B03EBC2035C68B4F1FF3F04D11E4B03EBC20250602DE01C4B03EB04139B6899420AD2184D05EBC2025060174A02EB04125B1A93601DE01C46144B73
:400D000003EB04139A68891ADB68B3F1FF3F05D00F4A02EB031292689142EFD2B3F1FF3F05D00B4A02EB031295686D1A9560084A02EB0414E0601C46054B03EB0010816077
:400D4000C46030BC704700BF382300002481FF1F7883FF1F38B5394A02EBC0035C6852F83030013342F8303000EB40018A0034498A58934203D90022304B43F83020B4F1C7
:400D8000FF3F59D02F4B03EB04139B68002B4ED1214600E019462B4B03EB0113DB68B3F1FF3F05D0274A02EB03129268002AF1D0244A02EB01114FF0FF32CA601F4A02EB33
:400DC000C0004360B3F1FF3F07D01E4A02EB03139A68013A9A6000E02C4604EB44029300194A13441B7A7BB904EB44029300164A13445A68154B53F8223003EB83039A004C
:400E000013481044FFF744FF0E4B03EB0413DD68596821B101392046FFF74EFF03E024010022084B1A51B5F1FF3FD5D138BD054A02EB0414013BA36038BD00BF2481FF1F40
:400E40004C2300007883FF1F38230000482300002423000038B5EFF3108572B6002838D1FFF778FF204B1B68002B34D11F4B1C6800F038FAB0F1FF3F2FD01D4B53F82020B4
:400E80001C4B1B689A422AD9B4F1FF3F03D00221194A42F82410194A52F820201343154A13600022144B43F8202000F0D7F9144B53F820304BB10024114B43F8204040F0AD
:400EC000004000F019FE20460AE000F015FE002006E0032004E0002002E0002000E0002085F3108838BD00BF4883FF1FFC81FF1F9C2300002483FF1F1482FF1F8023000006
:400F0000E082FF1FEFF3108372B6114A1168114A126882B9B1F1FF3F0FD00F4A52F821206AB110B40D4C54F8212022EA000044F82100002007E0022002E0022000E00120B1
:400F400083F31088704783F3108810BC704700BFFC81FF1F4883FF1F582300000883FF1F04280FD80B4B53F820306BB10A4B53F82030032B0AD059B1084B53F820300B6039
:400F8000002070470320704701207047072070470E207047582300001482FF1F0883FF1F38B5EFF3108472B6042853D8324B53F82030002B50D0314B53F82030032B4DD066
:400FC0002F4D55F820200A4345F820202D4A52F82020114244D0012B44D10222274B43F8202000F0A1F9284B1B68002B3CD1274B1D6800F077F9B0F1FF3F37D0244B53F8B5
:401000002020244B1B689A4232D9B5F1FF3F03D002211A4A42F825101F4A52F8202013431C4A13600022154B43F8202000F016F91A4B53F820304BB10025184B43F820509D
:4010400040F0004000F058FD284612E000F054FD00200EE003200CE001200AE0072008E0002006E0002004E0002002E0002000E0002084F3108838BD582300001482FF1F84
:401080000883FF1FF482FF1F4883FF1FFC81FF1F9C2300002483FF1F80230000E082FF1F38B5EFF3108472B6364B1D68364B1B68002B5DD1B5F1FF3F5CD0344B53F82530AB
:4010C000002B59D0324B53F82530034256D1314B43F825000122304B43F825202F4B53F825002F490B6823EA00030B602D4B43F825202D4B53F82520224B1A6000F0F2F808
:40110000B0F1FF3F06D0294B53F82020244B1B689A420DD81B4B1868B0F1FF3F03D000221D4B43F8202040F0004000F0E5FC1AE00021194A42F82010184A52F82020134340
:40114000174A136000F08AF8164B53F8203043B10022144B43F8202040F0004000F0CCFC01E000F0C9FC00200A4B43F8250006E0022004E0022002E0012000E0002084F322
:40118000108838BDFC81FF1F4883FF1F582300000883FF1FF482FF1F1482FF1F802300002483FF1FE082FF1F0082FF1F9C23000008B500F053F8084B53F8203043B100226F
:4011C000054B43F8202040F00040044B186008BD024B186008BD00BFE082FF1F4C83FF1F10B500F07FF8124B1B68B0F1FF3F1AD0104A52F82010104A1268914213D9B3F192
:40120000FF3F03D002240D4941F8234000210B4B43F820100A4B53F820301A43064B1A60FFF7C6FF10BD43F00043064A136010BDFC81FF1F9C2300002483FF1F1482FF1F2A
:40124000802300004C83FF1F034B1B6813B10022014B1A60704700BF3C83FF1FF0B4184B19880B0A174AD356B3F1FF3F01D1535601E008335BB2144D55F82320134850F8AD
:401280002200134E56F8224045F82340114D2F6846F822702A60B4F1FF3F09D10E4A42F82340012202FA03F321EA0301044B19800A4B19680A4A42F820101860F0BC7047DF
:4012C0002083FF1F18220000BC81FF1F5083FF1F4081FF1F1C83FF1F7C81FF1FFC81FF1F0082FF1F0C4B1A88130A0C49CB56B3F1FF3F01D18B5601E008335BB2B3F1FF3F89
:4013000006D0074A52F82320064B53F8220070474FF0FF30704700BF2083FF1F18220000BC81FF1F5083FF1F30B4144B53F82020134C2368134951F823502560124C44F86A
:4013400023004FF0FF3441F82340104951F82210A1420AD10E4951F820400E480188214301800D4941F8223002E0064840F82130064941F8223030BC704700BF5481FF1F1D
:401380001C83FF1F4081FF1F5083FF1F7C81FF1F9C2300002083FF1FBC81FF1F10B150F8210070474FF0FF30704700BF0122014B1A60FEE74483FF1F70B50546124B53F81A
:4013C000306000241CE0104B03EBC50321465868FFF7E4FF0D4A52F82030013B42F820300B4B53F82030032B07D10222084B43F820200022074B43F82020FFF795FF0134DE
:40140000B442E0D370BD00BF182300006881FF1F1482FF1F0883FF1F18B908B5FFF7CCFF08BD7047194B1A4ADA621A4A9A631A4ADA63EFF3108272B6184B1B6813BB10B592
:40144000044600F053F8164B1C600122134B1A602046FFF7E1FFFFF745FFB0F1FF3F0ED0104B53F82030104A11680B43136000220E4B43F82020FFF7F1FE00F03DFB62B637
:40148000FFF794FF82F31088072070470080FF1FB91A00007D1A0000910000004483FF1F7087FF1F802300002483FF1F1482FF1F08B5EFF3108272B6094B1968094B1B6804
:4014C00033B94FF0FF30084B43F82100002000E0022010B9084600F068FB82F3108808BDFC81FF1F4883FF1F2C81FF1F10B5EFF3108472B600F0B0FA034A136843F07F437C
:40150000136084F3108810BD20ED00E010B541F6FF734FF480420121022000F061F9084C207041F6FF731A460121042000F076F96070044800F090F9002000F093F910BDDE
:401540002C83FF1F7916000070B52C4C2078FFF7D9F96078FFF7D6F9294B1B78FF2B03D1FFF73EFA264B1870254D2878062302460421FFF74FFA214E341DA4B2224645F6A9
:40158000A0312878FFF75AFA29783078FFF7FAF96B78FF2B02D1FFF723FA6870184D6878072302460421FFF735FA164A92B221466878FFF743FA114C69786078FFF7E2F96D
:4015C00001212078FFF782F901216078FFF77EF900F03AFA0C4A137843F02003137000F037FA0A4B1A7842F001021A701A7842F002021A700122064B1A6070BD2C83FF1F7A
:401600005482FF1F5C8DFF1F986400407B64004080E200E008B5074B9B6823B9FFF776FF0122044B9A6000F0C5F8FFF78DFF024B1B7808BD2C83FF1F6865004008B500F0F2
:40164000C7F808BD044B1B7803F0FF020BB90028F8D01046704700BF68650040C0F10100034B33F91030034A1088181A00B270475C8DFF1F648DFF1F704700BF08B50A281C
:401680000FD00C2802D0082806D102E04FF4805209E04FF4807206E00020FFF7DDF9002201E04FF480620021094B198042F2107303FB02F303F6C413064A82FB0302DB17E3
:4016C000C3EBE223044A1360044B198008BD00BF628DFF1FAD8BDB68688DFF1F648DFF1F10B500F0B1F90446184A137843F0010313701032137843F00103137002F5AA5296
:401700000832137843F0030313701822104B1A70013B1A7842F040021A701A7802F0FC021A70C822053B1A700222A3F597530C3B1A70084A137843F0080313700A20FFF748
:401740008DF9204600F084F910BD00BFAB43004006590040275B004010B504460A280DD00C2802D0082804D101E0C22207E0422205E00020FFF770F9C22200E08222034BA2
:401780001A702046FFF77AFF10BD00BF0259004008B5064A137843F0060313700C20FFF7DBFF0022024B1A8008BD00BF01590040608DFF1F08B5054B1B7823B9FFF7E8FFC5
:4017C0000122024B1A70FFF78BFF08BD3883FF1F024A137843F001031370704700590040F0B583B016461F460B4C012525700023019300932B460A4601462846FFF7CEF8C9
:401800003A4631462078FFF7A3F802212078FFF78DF8207803B0F0BD5682FF1FF0B583B016461F460B4D00242C700194009423460A4601462046FFF7B1F83A4631462878EE
:40184000FFF786F802212878FFF770F8287803B0F0BD00BF5782FF1F014B1B681864704708ED00E04001C0B2014B1870704700BF00E400E07222084B1A702022A3F2011329
:401880001A7006225D3B1A70472210331A70002250331A70704700BF8B65004010B500F0D3F804460A4A137843F020031370A2F20112137843F0100313700332137843F0D9
:4018C0001003137000F032F8204600F0C1F810BD9B65004008B5054B1B7823B9FFF7CAFF0122024B1A70FFF7D9FF08BD3983FF1F034B1B7813F0040FFAD1024B187070472C
:401900006D6400404A64004038B5074B1B782BB938BDFFF7EDFF0134A4B201E005460024285D0028F5D138BD3983FF1F054A137843F0040313701032137843F004031370DD
:40194000704700BFA2430040024A137843F08003137070477E640040014B1870704700BF0E640040014B1870704700BF4E640040014B1870704700BF2E640040014B1870BB
:40198000704700BF8E640040014B1878704700BF6E640040014B1878704700BF5E64004008B501E0FFF7F6FFFFF7EEFF10F0100FF8D108BD10B5114A137803F0C00343F01A
:4019C000090313700E4C237843F001032370FF20FFF7C2FFFF20FFF7C5FF7F20FFF7C8FF0020FFF7CBFF00F02FF8237843F01003237000F02DF8FFF7D3FF10BD7E64004057
:401A00009E64004008B5054B1B7823B9FFF7D2FF0122024B1A70FFF797FF08BD3B83FF1F044A137803F0BF03800100F04000184310707047005100400230800803D000BF4C
:401A400001380046FCD17047EFF3108072B6704780F31088704700BF18484FF47F0102680A43026016486FF07F4102680A400260704714484FF080510160704772B6114806
:401A80004FF000610160FFF7ABFB0F48006800F0C3F858B10C4800684FF080730B4A0C490FB40FB46FF00600004700BF6FF0060062B6004762B600DF08B0704720ED00E076
:401AC0001CED00E004ED00E04C83FF1FF91A0000B51A0000EFF30880054908600548006880F3088870470248006880F3088870475882FF1F4482FF1F411C8900154A1144EC
:401B00000968154A136899421AD0F0B444464D4656465F46F0B400B5104C9B002344EFF308851D60116089002144096881F3088802BC8E46F0BCA046A946B246BB46F0BC64
:401B4000002806DB00B500F05BF802BC8E46FFF7D3BF7047D82300002883FF1F4882FF1FF0B444464D4656465F46F0B400B5EFF3038308B48000174901440968164A02442C
:401B8000EFF30883136088471448804704BC4FF08070024382F3038801BC8646F0BCA046A946B246BB46F0BC704780000A4901440A6882F3088804BC4FF08070024382F381
:401BC000038808BC9E46F0BCA046A946B246BB46F0BC7047B02300006483FF1FE11B000008B572B6014B1868FFF7DFFFFC81FF1F08B5024B1868FFF7B3FF08BDFC81FF1F4F
:401C000008B562B6FFF7F4FF72B600F041F8014B186808BD4C83FF1F00280BDA20F000400130054B53F82000044B1B68181A18BF0120704701207047D82300002883FF1F7F
:401C4000054B53F82020054B53F820309A4201D101207047002070476881FF1F6C23000008B5FFF7FBFA084B53F8203043B10022054B43F8202040F00040044B186008BD38
:401C8000024B186008BD00BFE082FF1F4C83FF1F38B5364B1C680022354B1A60354A52F82430013342F82430334B53F824502046FFF7C6FF012801D0A54204D103222F4BCE
:401CC00043F8242003E002222C4B43F824202C4B53F824102B4A136823EA010313602A4B53F82440214B1C60B5F1FF3F0FD0234B53F82530032B07D10222204B43F825200C
:401D00000022224B43F825202846FFF70DFBFFF7E9FAB0F1FF3F0BD1B4F1FF3F03D00022164B43F8242044F00044194B1C6038BD184B53F82020134B1B689A4208D80022E2
:401D40000E4B43F8242044F00044114B1C6038BD00210A4A42F82010094A52F820201343084A1360FFF77CFF38BD00BFFC81FF1F3C83FF1F6881FF1F2C81FF1F1482FF1F4C
:401D8000802300002483FF1F0082FF1F0883FF1F4C83FF1F9C230000014B1868704700BFBC82FF1F0E4B70B51E460E4C0025E41AA410A54204D056F8253098470135F8E7C3
:401DC00000F054FB084B094C1E46E41AA4100025A54204D056F8253098470135F8E770BD7824000078240000782400008024000010B5431E0A44914204D011F8014B03F85F
:401E0000014FF8E710BD03460244934202D003F8011BFAE7704700000000000047657474696E672063616C6C6564207468726F75676820656E67696E652072756E6E61620D
:401E40006C650000456E67696E652073706565642075706461746564207769746820616E6F74686572206E65772076616C756500456E67696E65207370656564206E6F7477
:401E80002075706461746564000000000A456E67696E65207369676E616C206F626A6563742075706461746564207769746820656E67696E65207369676E616C2076616C0C
:401EC000756500000A4572726F723A20456E67696E6565207369676E616C206E6F742061626C6520746F20777269746520746F204472697665720000497373756520776936
:401F00007468204A6F79737469636B204472697665720D0A00000000E90100000100000001000000E50200000A0000004D0200006400000002000000950100000200000088
:401F40000100000000000100010001000100010001000100010002000200020002000200020002000200020002000200020003000300030003000300030003000400040023
:401F80000400040004000400050005000500050005000600060006000600070007000700080008000800090009000A000A000A000B000B000C000C000D000D000E000F001E
:401FC0000F00100011001100120013001400150016001700180019001A001B001C001D001F0020002100230024002600280029002B002D002F0031003400360038003B00D3
:402000003D0040004300460049004C004F00530057005B005F00630067006C00700075007B00800086008C00920098009F00A600AD00B500BD00C500CE00D700E100EB0066
:40204000F50000010B011701240130013E014C015B016A017A018B019C01AF01C201D601EA01000217022E02470261027C029802B502D402F402160339035D038303AB0349
:40208000D50300042D045D048E04C204F80430056B05A805E8052B067106BA0606075607A90700085B08B9081C098309EF09600AD50A500BD10B560CE20C740D0D0EAC0EA2
:4020C000520F0010B510731138120713DF13C014AB15A116A117AD18C419E91A1A1C581DA51E00206B21E52271240E26BD278029562B412D422F5A318933D1353338B03AAF
:40210000493D0040D542CB45E2481C4C7A4FFF52AC56825A845EB3621267A26B66706075927A0080AA85958BC3913798F59EFEA558AD04B508BD66C524CE44D7CCE0C0EABB
:4021400025F5FFFF000000009D0400000000000000000000000000000000000000000000000000000000000000000000000000009D04000000000000000000000000000005
:4021800000000000000000000000000000000000000000007504000000000000010000000000000001000000BC2100000000000000000000010000000000000003000000C3
:4021C0000000000000000000020000000000000001000000E82100000000000000000000000000000000000004000000305100404000F051004010000000014000100014D8
:402200000140000800400140000A004C014000020050014020000000FF00010102020202030303030303030304040404040404040404040404040404050505050505050501
:4022400005050505050505050505050505050505050505050505050506060606060606060606060606060606060606060606060606060606060606060606060606060606F6
:402280000606060606060606060606060606060606060606060606060707070707070707070707070707070707070707070707070707070707070707070707070707070776
:4022C000070707070707070707070707070707070707070707070707070707070707070707070707070707070707070707070707070707070707070707070707070707071E
:4023000007070707070707070707070707070707070707070707070701000000202300000000000000000000020000000000000000000000FFFFFFFF0000000000000000B3
:40234000000000000000000000000000A08601000100000000000000000000000000000000000000010000000100000001000000010000000100000001000000010000002E
:402380008000000001000000100000000400000008000000010000000200000001000000010000001000000004000000080000005501000091010000B1030000850300003B
:4023C000DD030000F11B0000F11B0000F11B0000F11B0000F11B0000000000000000000000000000000000000100000002000000616C726D5F316D730000000065765F6AFE
:402400006F79737469636B5F6F6E44617461000065765F636F6E74726F6C73706565645F6F6E44617461000074736B5F696E69740000000074736B5F6261636B67726F757A
:402440006E64000074736B5F494F000074736B5F436F6E74726F6C0074736B5F4272616B656C69676874000043000000F8B500BFF8BC08BC9E4670474D0000002D080000BD
:40248000F8B500BFF8BC08BC9E46704729000000A0240000C880FF1FF8010000B00A000000000000000000000000000000000000C021000000000000000000009421000001
:4024C0000000000000000000000000006C210000000000000000000000000000442100007F800000030000000000E02EC05D00001800000000366E01F023000000000000ED
:40250000FFFFFFFFFFFFFFFFFFFFFFFFFFFFFFFFFFFFFFFFFFFFFFFF01000000020000000300000004000000FFFFFFFF0000000000000000040000000200000003000000A4
:402540000100000001000000010000000100000001000000FFFFFFFFFFFFFFFFFFFFFFFFFFFFFFFFFFFFFFFFFFFFFFFFFFFFFFFFFFFFFFFFFFFFFFFFFFFFFFFFFFFFFFFF82
:40258000FFFFFFFFFFFFFFFFFFFFFFFFFFFFFFFFFFFFFFFFFFFFFFFFFFFFFFFFFFFFFFFFFFFFFFFFFFFFFFFFFFFFFFFFFFFFFFFFFFFFFFFFFFFFFFFFFFFFFFFFFFFFFFFF5B
:4025C000FFFFFFFFFFFFFFFFFFFFFFFFFFFFFFFFFFFFFFFFFFFFFFFFFFFFFFFFFFFFFFFFFFFFFFFFFFFFFFFFFFFFFFFF0300000003000000030000000300000003000000F8
:40260000FC230000102400002824000034240000442400004C240000582400005C8DFF1F00000000348BFF1F4887FF1FFFFFFFFF0000000000000000000000000000000082
:4026400000000000000000000000000000000000000000006824000000000000000000000000000000000000000000000000000000000000000000000000000000000000CE
:4026800000000000000000000000000000000000000000005C82FF1F000000000000000000000000000000000000000000000000000000000000000000000000000000001E
:4026C00000000000000000000000000000000000000000000000000000000000000000000000000000000000000000000000000000000000000000000000000000000000DA
:402700000000000000000000000000000000000000000000000000000000000000000000000000000000000000000000000000000000000000000000000000000000000099
:402740000000000000000000000000000000000000000000000000000000000000000000000000000000000000000000000000000000000000000000000000000000000059
:402780000000000000000000000000000000000000000000000000000000000000000000000000000000000000000000000000000000000000000000000000000000000019
:020000040003F7
:0200000480007A
:4000000004520040015B0040046400400165004001030140060501402606014033070140230801403E0901404F0A01404A0B0140340C01403D0D01402E0E01402C0F01409E
:40004000021501400C160140381701402A18014041190140431A0140481B0140084001400841014008420140024301400244014005450140064601400547014002480140FA
:4000800001490140014C0140064D01400A500140025101400002010210106440278488018A388D0F8E0D8B72E4408708A410A540AD40B010E6400101040108010B010C0129
:4000C0000D01140115011A011C011D01210125012A0132013701580459045C115F0183028D02930895049B049F01A108A501AB10AE01B31FB601B908BF04D804D904DC111A
:40010000DF0100400120031004400608071009080A010D080E010F0410021288172019801A011B401F0820302208232025402A282B422C802E0830223188330436803704A0
:4001400038503B063C603E01800285808C288F01A410A540A708C0E7C2E5C44BCACFCC5FCEBFE008E204EE0400400280040808100A200C021080124016081A021B021E01E4
:4001800020042420261028012E042F01330234FF37013A023E1056025735580459045B0C5C125D105F01D804D904DC11DF0100100140024004220642071008120C520E0A7F
:4001C0000F18104414201581160817041D22243328422B042C46300434223604381239C03C113D405E2067086C426D016F14760A7F028310840487108C408E029240930807
:40020000940495809C059D019E68A211A302A714B708C0FBC2FAC4FACABDCCE2CEBDD620D820DE10E240E610EE0404400513076C0B800C800E0C10701209143115131644BD
:4002400017E4182419031A401B041C021DCA1F342050233528412A302BC8307C330F3403368037F038203B883E4040644103450C460B470E481549FF4AFF4BFF4EF04F4459
:40028000500C5418580459045A045B045C225D225F0166C06A406B0282048808960497039A019D019E02A408A801B208B301B403B604B702B808BE44D203D302D804D90C29
:4002C000DB04DC19DD10DF01004002100501070808400A940B020E080F21108013101724184019101A051D801E081F04210422402310268827202840291030203104324002
:40030000368439083A104101421048304B10508053085801600461806E206F067F0286018E489102921093039588968499049A109C049E68A201A410A70CB082B120B308B0
:40034000C055C2EFC46ACA05CC5ECE06D003D204D601D80CDE10E008E640EC805608580459045B045C115D905F01830185038A08900692099408950496039A069D029E093D
:40038000A503A602A808AA05B008B103B207B304B902BA08BE01BF05C004C640C9FFCA07CBFFCC40CD20CEF0CF05D008D401D804D904DA04DB04DC12DD22DF01E040E1A861
:4003C000E240E3200020012006200A940B020C410E020F0812141404164219041A5020402204284029042B062C812E02300131203240330834043601390A3A643B423E20B2
:400400003F4840404B025210580259205A485D806701840487028D80958098019C049E68A201A520A704AF08C022C2DFC4D6CA9FCCCFCE7FD001D61FD810E440EC020701DA
:40044000120818011E0423012607300132043301340236083F044010410645D14702481349FF4AFF4BFF4DA04F04501852805405580459045A045B045C105F01604062C081
:400480006440654066C068C06AC06CC06EC08A01B601D804D904DC11DF01062809020A050C040E020F0810201411158016401A451B481C011E0222042B442C013015312043
:4004C000331034043601371038093A603B403E203F48420148284901500C59015A487102C060C2EBC4B4CA15CCE7CE7FD008D204D60BB440EC20580459045C115F019B012B
:40050000AB02B102B301D804D904DC11DF010050031004500608071009080A010C020E090F0410021280172020402108232028082A082B422E092F02302231083280368020
:40054000372038403C60828488128F2092019440970498089A089B10A030A342A508A680A880A980AB12B220B520B608C0E7C2D5C449CADFCC3FCE38E604EA04EE010141C9
:40058000032004010582080109D30B0C0DDF100111C3150C17D3190C23C324012504290F2BD02D0831C03320350F3601371039803B203E405401580459045B0C5C215D10FC
:4005C0005F018201AE01B401BE10D804D904DC11DF0100100148028004020534060108160C440D020F88104215801660170418041E012680275428422A402B042DA12E0850
:4006000030343504372238123D083E223F80440147405E407F02800181408A408C208D40901292409404958098449A019C039D01A102A302A714A810AA29B120B601C0FFFC
:40064000C2FEC4B9CAFDCCE6CEF5D610DE10E490EA10EE80580459045C115F018112838C8418853F8808893F8C048D088F70907F9101943C95249642978A981C9A619C10CF
:40068000A263A467A618AA04B038B1C0B21FB306B458B501B738BA28BF01C032C104C205C401C6C0C7E0C828C9FFCAFFCBFFCC62CDA0CEF0CF41D00CD602D713D804D9040D
:4006C000DA04DB04DC22DD22DF01E640E702E910EA30EB10ED10EE10EF12000101200201060A072008150C800D020E281040150117141D151E282564260827422841292022
:400700002A402B043034310132013608370138133D843E12452247444E01540257105E016D046E106F01748075807608772085218A0290129201950198449A419B149D9536
:400740009E0A9F22A020A102A304A402A504A710B508B704C0EBC2FEC478CA0DCCC6CEF5D0F0D210D680E840EC201108168030803B023E80C430CC10CE6051105E808D0461
:400780009702A104A480D420D62086408C809702A480A640AD10E640EA40AB01EE207310DC015F0297109B02AF02D6011B04271087109710C608C8014401AB04B710D0046A
:4007C000EE022080C840B0409C0110408840B001C408E201EC04000701010A020C060D010E070F0110061A021C060003100A000000404000000303008000408080008000DB
:4008000000000000000B0B00000000000010100010000000000100000000000000000000000000000000000000000000000000000000000000000000000000000000000071
:400840000000000000000000000000000000000000000000000000000000000000000000000000000000000000000000000000000000000000000000000000000000000078
:400880000000000000000000000000000000000000000000000000000000000000000000000000000000000000000000000000000000000000000000000000000000000038
:4008C00000000000000000000000000000000000000000000000000000000000000000000000000000000000000000000000000000000000000000000000000000000000F8
:4009000000000000000000000000000000000000000000000000000000000000000000000000000000000000000000000000000000000000000000000000000000000000B7
:0200000490006A
:0400000000004005B7
:0200000490105A
:04000000BC90ACAF55
:0200000490303A
:02000000842456
:0200000490402A
:4000000000000000000000000000000000000000000000000000000000000000000000000000000000000000000000000000000000000000000000000000000000000000C0
:400040000000000000000000000000000000000000000000000000000000000000000000000000000000000000000000000000000000000000000000000000000000000080
:400080000000000000000000000000000000000000000000000000000000000000000000000000000000000000000000000000000000000000000000000000000000000040
:4000C0000000000000000000000000000000000000000000000000000000000000000000000000000000000000000000000000000000000000000000000000000000000000
:0200000490501A
:0C00000000012E16106900012E25948DC1
:00000001FF