:400000000080002011000000390900003909000008B5044B1A6803F53F5302331A6000F093FC00BFFA46004010B5054C237833B9044B13B10448AFF300800123237010BD64
:40004000C082FF1F00000000E81F0000084B10B51BB108490848AFF300800848036803B910BD074B002BFBD0BDE81040184700BF00000000C482FF1FE81F0000C880FF1F02
:400080000000000008B5002000F0B0FF08BD00BF684620F007018D4619B572B6EFF311841E4B1B68DBB20F2B10D9103B23F0030202F1604202F564421168DB0003F01803A7
:4000C000E0229A400A4022FA03F306E00F2B03D1134B1B681B0E00E0002383F31188114A136801331360012B01D101F0DBFD62B6FFF7C8FF72B684F3118801F071F9094AB9
:400100001368013B13601BB901F0D5FD01F099FD62B6BDE819408546704700BF04ED00E020ED00E04C83FF1F08B562B645F6BF52054B1A60054A136843F0020313600020F5
:4001400001F03CFAFBE700BF14E000E010E000E008B5032000F0C8F901F094FA144A136843F00503136001F095FC01F02BFD00221146104600F0AEF900F0E8F9012803D1AD
:400180000C4801F0A1FC02E00B4801F09DFC01221146002000F0ACFD032000F035FD012000F032FD042000F02FFD01F04DFA08BD10E000E0EC1F00000C20000008B500F0F5
:4001C000ABF900BFFBE700BF08B501F015FD08BD684620F007018D4619B572B6EFF311841E4B1B68DBB20F2B10D9103B23F0030202F1604202F564421168DB0003F01803DD
:40020000E0229A400A4022FA03F306E00F2B03D1134B1B681B0E00E0002383F31188114A136801331360012B01D101F03BFD62B6FFF7CAFF72B684F3118801F0D1F8094AB6
:400240001368013B13601BB901F035FD01F0F9FC62B6BDE819408546704700BF04ED00E020ED00E04C83FF1F38B5134B1968134BDA68196000219960022119715569936810
:4002800073B13DB90CE0996855F8240000F054FF013400E00024094BDB681A699442F2D3064B1B79022B03D10448C3685B689847032000F03FF938BDCC80FF1FF880FF1F56
:4002C00030B583B010F0010F24D0154B1B88ADF80430ADF80030002143F307238B4200DD5900104BDA68196000219960022119715569936873B13DB90CE0996855F824009F
:4003000000F01AFF013400E00024064BDB681A699442F2D3012000F00DF903B030BD00BFDC80FF1FCC80FF1F38B51B4B9B68952B02D8194B1C6803E00024184801F0C4FB80
:40034000174BDA681C6000219960022119715569936873B13DB90CE0996855F8240000F0EBFE013400E000240D4BDB681A699442F2D30B4B1B79022B04D10948C3685B686F
:40038000984701E04FF0FF3010B1064801F09CFB022000F0CFF838BDCC80FF1F28200000E880FF1F4420000070B582B0264B9B681A68002A3DD0244A128802A820F8082D8B
:4003C0001B6898470546E8B9BDF80010ADF804101D4B9A6819800021596002219970566993683BB33EB925E0996856F8240000F0A3FE013400E00024134B9B681A6994428D
:40040000F2D317E0104B03229A709B68DE69DB6883B13EB90EE0D96856F8240000F08CFE013400E00024084B9B689A699442F2D300E0002515B1054801F046FB002000F01C
:4004400079F802B070BD00BFDC80FF1F7820000000B583B000230193012000F0EDFE01A9032000F049FE019800F018FE019A0121014800F08FF8EFE79820000010B5084CF9
:4004800022680221074800F06DF823680133236013F5807F01D90022226001F0D5F810BDDC82FF1FA420000000B583B000230193022000F0C1FE01A9042000F01DFE019877
:4004C00000F0ECFD019A0121014800F063F8EFE7B820000008B5034B13F8110001F028FB002008BDC42000000A4B1A7802F0FC0200F00300104318701A7842F080021A70AB
:400500001A7802F07F021A701A7842F010021A700020704783430040044B1B780F2B02D10122034B1A700020704700BFE082FF1F84430040012303FA00F0034A13781843A4
:4005400010700020704700BFE082FF1F044B1B7803F0080303F0FF0003B10120704700BFC080FF1FF8B506460F46154600240DE006EBC4039A88B5FBF2F302FB13531BB90A
:4005800056F83430002098470134A4B2BC42EFD30020F8BDF8B505460E461746002409E005EBC4035868384202D055F8343098470134A4B2B442F3D30020F8BD10B582B04E
:4005C000044600F027F80DF106010DF1070000F029F89DF9073023709DF806306370002002B010BD10B5036843B9012001F0F8FA002211461046FFF76DFF08E00446002037
:4006000001F0EEFA002221781046FFF763FF002010BD00BF08B501F0DDF801F0EFF8002008BD00BF70B506460D46002001F0EAF8002001F0F3F884B2012001F0EFF880B2B9
:40064000D4F5006400D50F3444F307143470D0F5006000D50F3040F307102870002070BDFEE700BFF0B40022174611E050F82760F3B226F0FF0608E001EB420511F812401A
:400680006D78A5550132013BDBB2002BF4D10137252FEBD9F0BC704708B50A46002101F09AFC08BD38B50024284B1C80582202331A700E2202331A801823254A137019257F
:4006C00002321580023213700222224B1A7008224FF040231A70032103F5007319701E4B1B78DBB21D490B701D4B1A8041F25122023B1A800CE01B4B1B7803F0010343EAFF
:40070000440404F003044FF4F07001F07DFA013D0DB1032CEFD115B90320FFF7A1FF124B4FF480721A8007221A7000220F490A704820023108701A700222033B1A700C4A47
:40074000137843F00703137038BD00BF80400040864000400043004008010049A146004022420040254200400440004006400040A2430040F8B5164B1B78DBB2154E3478C1
:40078000E4B2154F3D78EDB203F00701134A11701B090132137044F00303337045F003033B7003220E4B1A7040230E4A13700232137030220C4B1A70202203331A700A2019
:4007C00000F000FA3D7034704422084B1A70F8BDCF010049F8460040F94600406E5800400D51004001590040205B00407658004008B501F0E5FB08BD38B572B63A4A137832
:4008000043F00403137000240CE0384D630019194A0011462A44084691882858FFF73CFF0134E4B2072CF0D900240BE02F49A3001819420088188022416B006BFFF7D8FF20
:400840000134E4B2002CF1D029494FF09040FFF709FF04212748FFF71FFF042226492748FFF7C6FF264A137843F0020313701032137843F002031370224C237843F040031D
:400880002370A2F58632513A137843F01003137008221D491D48FFF7ABFF0A221C491D48FFF7A6FF08221C491C48FFF7A1FF08221B491C48FFF79CFF1B4A137843F0080317
:4008C00013701A4D61232B70FFF7ECFE81232B700122174B1A70FFF74DFF0E2221461548FFF786FF38BD00BFE84600406C23000098000048007600401808004808760040A3
:4009000003500140A0430040F407004802510040FC070048C051004008080048125100401008004822510040224300400048004004000840B043004008B501F015FB0368AB
:400940000C2B00D1FEE7FEE708B5104E104D16E029686B68AC68002204E051F8040B43F8040B0432A242F8D1E868002203E0002143F8041B04328242F9D11035013E002EEE
:40098000E6D101F0F7FAFFF7CFFBFEE7010000002026000008B5114A114B1A60114A136843F40073136000230AE0032B03D80E4A52F8231000E00D490D4A42F823100133B8
:4009C0002F2BF2D90B4B1A780B4B1A70084A0B4B1A60FFF711FF00F013F808BD0004FA050CED00E014ED00E000000000390900000080FF1FBC760040C080FF1F08ED00E0E0
:400A00000B4A7F2313708021517007E0DA0002F1804202F5F042013BDBB21370002BF5D1DB0003F1804303F5F04300221A7070470881FF1F172815D831B103010A495A5C1C
:400A400042F020025A5405E0030107495A5C02F0DF025A540001044A835C43F00103835400207047012070471070004017280CD80001074BC1180A7942F004020A71C25CB6
:400A800042F00102C254002070470120704700BF1070004017280BD80001064A835C03F0F103490001F00E011943815400207047012070471070004041F6FF73994201D145
:400AC0004FF4005141F6FF739A4201D14FF40052172808D8C00000F1804000F5EC408180C280002070470120704700BF172805D8034B03EB0010417200207047012070474A
:400B00001070004017281BD810B4C00000F1804404F5EC44D201D2B201F07F01114321709DF804201201D2B203F00F03134363709DF8083003F00F03A3700020E07001E000
:400B40000120704710BC704710B501F065F80A4B5B78182B0BD9084A1478013B5370E30003F1804303F5F0431B78137000E0FF2401F056F8204610BD0881FF1F10F0800F55
:400B80000CD111F4704F0BD1C00000F1804000F5F04001808270C37000207047012070470120704710F0800F08D1C00000F1804000F5F0408180C280002070470120704705
:400BC00001BE704708B5034B1B7A00FB03F001F01BF808BD1081FF1F38B504460D46072902D90020FFF7ECFF1F2C02D90020FFF7E7FF04F01F0000F1604000F564406D0116
:400C0000EDB2057038BD00BF38B5EFF3108572B604284ED82D4B53F82030002B4BD02B4A013B42F820302A4B53F82030032B07D10222274B43F820200022264B43F8202045
:400C400000F03EFC244B1B68002B36D1234B1C6800F014FCB0F1FF3F31D0214B53F82020204B1B689A422CD9B4F1FF3F03D00221174A42F824101C4A52F820201343194A3D
:400C800013600022124B43F8202000F0B3FB174B53F820304BB10024144B43F8204040F0004001F011F820460CE001F00DF8002008E0032006E0042004E0002002E0002025
:400CC00000E0002085F3108838BD00BF6881FF1F1482FF1F0C83FF1F4C83FF1FFC81FF1F2C2500002883FF1F10250000E482FF1FF8B5EFF3108472B628BB00EB4005AB0064
:400D0000184DEB5803EB4306B500174E75598D421BD34AB103EB43039E00134B1E44B3689A4214D3954214D3A9B103010F4DEB589BB90301EE180127EF507260013900F048
:400D400087F800200AE0032008E0082006E0082004E0082002E0082000E0072084F31088F8BD00BFC8240000DC2400007C83FF1F18B108B5C368984708BD704708B508B17E
:400D8000406800E00020042816D80C4B53F8203093B10A4A013B42F82030094B53F82030032B07D10222064B43F820200022054B43F8202000F084FB08BD00BF6881FF1F55
:400DC0001482FF1F0C83FF1F18B1034640689B6801E00023184604281DD80F4A52F82020CAB10E4A52F82010032914D010B50C4C54F820201A4344F820200A4A52F82020B2
:400E0000134207D0012905D10222044B43F8202000F056FB10BD7047E82400001482FF1F0C83FF1FF882FF1F80B108B50378012B06D013B1032B06D008BDFFF79FFF08BD7D
:400E4000FFF7C2FF08BDFFF793FF08BD704700BF30B400EB40029300214AD258214B03EBC2035C68B4F1FF3F04D11E4B03EBC20250602DE01C4B03EB04139B6899420AD261
:400E8000184D05EBC2025060174A02EB04125B1A93601DE01C46144B03EB04139A68891ADB68B3F1FF3F05D00F4A02EB031292689142EFD2B3F1FF3F05D00B4A02EB031244
:400EC00095686D1A9560084A02EB0414E0601C46054B03EB00108160C46030BC704700BFC82400002481FF1F7C83FF1F38B5394A02EBC0035C6852F83030013342F83030A3
:400F000000EB40018A0034498A58934203D90022304B43F83020B4F1FF3F59D02F4B03EB04139B68002B4ED1214600E019462B4B03EB0113DB68B3F1FF3F05D0274A02EB75
:400F400003129268002AF1D0244A02EB01114FF0FF32CA601F4A02EBC0004360B3F1FF3F07D01E4A02EB03139A68013A9A6000E02C4604EB44029300194A13441B7A7BB9BF
:400F800004EB44029300164A13445A68154B53F8223003EB83039A0013481044FFF744FF0E4B03EB0413DD68596821B101392046FFF74EFF03E024010022084B1A51B5F156
:400FC000FF3FD5D138BD054A02EB0414013BA36038BD00BF2481FF1FDC2400007C83FF1FC8240000D8240000B424000038B5EFF3108572B6002838D1FFF778FF204B1B6819
:40100000002B34D11F4B1C6800F038FAB0F1FF3F2FD01D4B53F820201C4B1B689A422AD9B4F1FF3F03D00221194A42F82410194A52F820201343154A13600022144B43F85B
:40104000202000F0D7F9144B53F820304BB10024114B43F8204040F0004000F035FE20460AE000F031FE002006E0032004E0002002E0002000E0002085F3108838BD00BF6A
:401080004C83FF1FFC81FF1F2C2500002883FF1F1482FF1F10250000E482FF1FEFF3108372B6114A1168114A126882B9B1F1FF3F0FD00F4A52F821206AB110B40D4C54F879
:4010C000212022EA000044F82100002007E0022002E0022000E0012083F31088704783F3108810BC704700BFFC81FF1F4C83FF1FE82400000C83FF1F04280FD80B4B53F80E
:4011000020306BB10A4B53F82030032B0AD059B1084B53F820300B60002070470320704701207047072070470E207047E82400001482FF1F0C83FF1F38B5EFF3108472B6A4
:40114000042853D8324B53F82030002B50D0314B53F82030032B4DD02F4D55F820200A4345F820202D4A52F82020114244D0012B44D10222274B43F8202000F0A1F9284BC9
:401180001B68002B3CD1274B1D6800F077F9B0F1FF3F37D0244B53F82020244B1B689A4232D9B5F1FF3F03D002211A4A42F825101F4A52F8202013431C4A13600022154B13
:4011C00043F8202000F016F91A4B53F820304BB10025184B43F8205040F0004000F074FD284612E000F070FD00200EE003200CE001200AE0072008E0002006E0002004E077
:40120000002002E0002000E0002084F3108838BDE82400001482FF1F0C83FF1FF882FF1F4C83FF1FFC81FF1F2C2500002883FF1F10250000E482FF1F38B5EFF3108472B69D
:40124000364B1D68364B1B68002B5DD1B5F1FF3F5CD0344B53F82530002B59D0324B53F82530034256D1314B43F825000122304B43F825202F4B53F825002F490B6823EA23
:4012800000030B602D4B43F825202D4B53F82520224B1A6000F0F2F8B0F1FF3F06D0294B53F82020244B1B689A420DD81B4B1868B0F1FF3F03D000221D4B43F8202040F0CB
:4012C000004000F001FD1AE00021194A42F82010184A52F820201343174A136000F08AF8164B53F8203043B10022144B43F8202040F0004000F0E8FC01E000F0E5FC00204E
:401300000A4B43F8250006E0022004E0022002E0012000E0002084F3108838BDFC81FF1F4C83FF1FE82400000C83FF1FF882FF1F1482FF1F102500002883FF1FE482FF1FD4
:401340000082FF1F2C25000008B500F053F8084B53F8203043B10022054B43F8202040F00040044B186008BD024B186008BD00BFE482FF1F5083FF1F10B500F07FF8124B72
:401380001B68B0F1FF3F1AD0104A52F82010104A1268914213D9B3F1FF3F03D002240D4941F8234000210B4B43F820100A4B53F820301A43064B1A60FFF7C6FF10BD43F0F8
:4013C0000043064A136010BDFC81FF1F2C2500002883FF1F1482FF1F102500005083FF1F034B1B6813B10022014B1A60704700BF4083FF1FF0B4184B19880B0A174AD35670
:40140000B3F1FF3F01D1535601E008335BB2144D55F82320134850F82200134E56F8224045F82340114D2F6846F822702A60B4F1FF3F09D10E4A42F82340012202FA03F3A9
:4014400021EA0301044B19800A4B19680A4A42F820101860F0BC70472483FF1FA8230000BC81FF1F5483FF1F4081FF1F2083FF1F7C81FF1FFC81FF1F0082FF1F0C4B1A8837
:40148000130A0C49CB56B3F1FF3F01D18B5601E008335BB2B3F1FF3F06D0074A52F82320064B53F8220070474FF0FF30704700BF2483FF1FA8230000BC81FF1F5483FF1F0C
:4014C00030B4144B53F82020134C2368134951F823502560124C44F823004FF0FF3441F82340104951F82210A1420AD10E4951F820400E480188214301800D4941F8223095
:4015000002E0064840F82130064941F8223030BC704700BF5481FF1F2083FF1F4081FF1F5483FF1F7C81FF1F2C2500002483FF1FBC81FF1F10B150F8210070474FF0FF3053
:40154000704700BF0122014B1A60FEE74883FF1F70B50546124B53F8306000241CE0104B03EBC50321465868FFF7E4FF0D4A52F82030013B42F820300B4B53F82030032B8F
:4015800007D10222084B43F820200022074B43F82020FFF795FF0134B442E0D370BD00BFA82400006881FF1F1482FF1F0C83FF1F18B908B5FFF7CCFF08BD7047194B1A4A57
:4015C000DA621A4A9A631A4ADA63EFF3108272B6184B1B6813BB10B5044600F053F8164B1C600122134B1A602046FFF7E1FFFFF745FFB0F1FF3F0ED0104B53F82030104AB8
:4016000011680B43136000220E4B43F82020FFF7F1FE00F059FB62B6FFF794FF82F31088072070470080FF1F891C00004D1C0000910000004883FF1F7487FF1F1025000051
:401640002883FF1F1482FF1F08B5EFF3108272B6094B1968094B1B6833B94FF0FF30084B43F82100002000E0022010B9084600F084FB82F3108808BDFC81FF1F4C83FF1FDD
:401680002C81FF1F38B50D4B1D68EFF3108472B600F0CAFA0A4A136843F07F431360094B2B6502210420FFF797FA074A136843F01003136084F3108838BD00BF08ED00E03D
:4016C00020ED00E0D101000000E100E010B541F6FF734FF480420121022000F061F9084C207041F6FF731A460121042000F076F96070044800F090F9002000F093F910BDD9
:401700003083FF1F3918000070B52C4C2078FFF7ADF96078FFF7AAF9294B1B78FF2B03D1FFF712FA264B1870254D2878062302460421FFF723FA214E341DA4B2224645F6D1
:40174000A0312878FFF72EFA29783078FFF7CEF96B78FF2B02D1FFF7F7F96870184D6878072302460421FFF709FA164A92B221466878FFF717FA114C69786078FFF7B6F9B4
:4017800001212078FFF756F901216078FFF752F900F042FA0C4A137843F02003137000F03FFA0A4B1A7842F001021A701A7842F002021A700122064B1A6070BD3083FF1FFC
:4017C0005482FF1F608DFF1F9A6400407B64004080E200E008B5074B9B6823B9FFF776FF0122044B9A6000F0C5F8FFF78DFF024B1B7808BD3083FF1F6865004008B500F027
:40180000C7F808BD044B1B7803F0FF020BB90028F8D01046704700BF68650040C0F10100034B33F91030034A1088181A00B27047608DFF1F688DFF1F704700BF08B50A2852
:401840000FD00C2802D0082806D102E04FF4805209E04FF4807206E00020FFF7B1F9002201E04FF480620021094B198042F2107303FB02F303F6C413064A82FB0302DB174D
:40188000C3EBE223044A1360044B198008BD00BF668DFF1FAD8BDB686C8DFF1F688DFF1F10B500F0B9F90446184A137843F0010313701032137843F00103137002F5AA52C0
:4018C0000832137843F0030313701822104B1A70013B1A7842F040021A701A7802F0FC021A70C822053B1A700222A3F597530C3B1A70084A137843F0080313700A20FFF787
:4019000061F9204600F08CF910BD00BFAB43004006590040275B004010B504460A280DD00C2802D0082804D101E0C22207E0422205E00020FFF744F9C22200E08222034B30
:401940001A702046FFF77AFF10BD00BF0259004008B5064A137843F0060313700C20FFF7DBFF0022024B1A8008BD00BF01590040648DFF1F08B5054B1B7823B9FFF7E8FFFF
:401980000122024B1A70FFF78BFF08BD3C83FF1F024A137843F001031370704700590040F0B583B016461F460B4C012525700023019300932B460A4601462846FFF7A2F82F
:4019C0003A4631462078FFF777F802212078FFF761F8207803B0F0BD5682FF1FF0B583B016461F460B4D00242C700194009423460A4601462046FFF785F83A4631462878B1
:401A0000FFF75AF802212878FFF744F8287803B0F0BD00BF5782FF1F014B1B681864704708ED00E04001C0B2014B1870704700BF00E400E07222084B1A702022013B1A70A2
:401A40000622A3F25B131A70472210331A7000224F331A70704700BF8A65004010B500F0DBF804460A4A137843F020031370013A137843F010031370FC3A137843F0100388
:401A8000137000F033F8204600F0CAF810BD00BF9A65004008B5054B1B7823B9FFF7CAFF0122024B1A70FFF7D9FF08BD3D83FF1F034B1B7813F0040FFAD1024B18707047B1
:401AC0006D6400404D64004038B5074B1B782BB938BDFFF7EDFF0134A4B201E005460024285D0028F5D138BD3D83FF1F054A137843F0040313701032137843F00403137015
:401B0000704700BFA2430040024A137843F080031370704777640040014B1870704700BF07640040014B1870704700BF47640040014B1870704700BF27640040014B187015
:401B4000704700BF87640040014B1878704700BF67640040014B1878704700BF5764004008B501E0FFF7F6FFFFF7EEFF10F0100FF8D108BD10B5114A137803F0C00343F06D
:401B8000090313700E4C237843F001032370FF20FFF7C2FFFF20FFF7C5FF7F20FFF7C8FF0020FFF7CBFF00F037F8237843F01003237000F035F8FFF7D3FF10BD776400408C
:401BC0009764004008B5054B1B7823B9FFF7D2FF0122024B1A70FFF797FF08BD3F83FF1F044A137803F0BF03800100F0400018431070704700510040024B1878C0F3C0008A
:401C0000704700BF015100400230800803D000BF01380046FCD17047EFF3108072B6704780F31088704700BF18484FF47F0102680A43026016486FF07F4102680A400260AC
:401C4000704714484FF080510160704772B611484FF000610160FFF78FFB0F48006800F0C3F858B10C4800684FF080730B4A0C490FB40FB46FF00600004700BF6FF00600C6
:401C800062B6004762B600DF08B0704720ED00E01CED00E004ED00E05083FF1FC91C0000851C0000EFF30880054908600548006880F3088870470248006880F30888704746
:401CC0005882FF1F4482FF1F411C8900154A11440968154A136899421AD0F0B444464D4656465F46F0B400B5104C9B002344EFF308851D60116089002144096881F30888E5
:401D000002BC8E46F0BCA046A946B246BB46F0BC002806DB00B500F05BF802BC8E46FFF7D3BF7047682500002C83FF1F4882FF1FF0B444464D4656465F46F0B400B5EFF39A
:401D4000038308B48000174901440968164A0244EFF30883136088471448804704BC4FF08070024382F3038801BC8646F0BCA046A946B246BB46F0BC704780000A49014461
:401D80000A6882F3088804BC4FF08070024382F3038808BC9E46F0BCA046A946B246BB46F0BC7047402500006883FF1FB11D000008B572B6014B1868FFF7DFFFFC81FF1F97
:401DC00008B5024B1868FFF7B3FF08BDFC81FF1F08B562B6FFF7F4FF72B600F041F8014B186808BD5083FF1F00280BDA20F000400130054B53F82000044B1B68181A18BF9C
:401E00000120704701207047682500002C83FF1F054B53F82020054B53F820309A4201D101207047002070476881FF1FFC24000008B5FFF7DFFA084B53F8203043B10022BE
:401E4000054B43F8202040F00040044B186008BD024B186008BD00BFE482FF1F5083FF1F38B5364B1C680022354B1A60354A52F82430013342F82430334B53F8245020464D
:401E8000FFF7C6FF012801D0A54204D103222F4B43F8242003E002222C4B43F824202C4B53F824102B4A136823EA010313602A4B53F82440214B1C60B5F1FF3F0FD0234BEF
:401EC00053F82530032B07D10222204B43F825200022224B43F825202846FFF7F1FAFFF7CDFAB0F1FF3F0BD1B4F1FF3F03D00022164B43F8242044F00044194B1C6038BD52
:401F0000184B53F82020134B1B689A4208D800220E4B43F8242044F00044114B1C6038BD00210A4A42F82010094A52F820201343084A1360FFF77CFF38BD00BFFC81FF1F40
:401F40004083FF1F6881FF1F2C81FF1F1482FF1F102500002883FF1F0082FF1F0C83FF1F5083FF1F2C250000014B1868704700BFBC82FF1F0E4B70B51E460E4C0025E41A70
:401F8000A410A54204D056F8253098470135F8E700F034FB084B094C1E46E41AA4100025A54204D056F8253098470135F8E770BD08260000082600000826000010260000DA
:401FC00010B5431E0A44914204D011F8014B03F8014FF8E710BD03460244934202D003F8011BFAE770470000000000005265736574206D6164652062792057617463684485
:402000006F672054696D65720A0000005265736574206D61646520627920506F7765724F6E52657365740A00456E67696E65207370656564206E6F742075706461746564F4
:402040000A0000000A4572726F723A20456E67696E6565207369676E616C206E6F742061626C6520746F20777269746520746F204472697665720A0049737375652077697A
:402080007468204A6F79737469636B204472697665720D0A00000000C10200000100000001000000A90300000A0000002903000064000000020000006902000002000000B7
:4020C00001000000000001000100010001000100010001000100020002000200020002000200020002000200020002000200030003000300030003000300030004000400A2
:402100000400040004000400050005000500050005000600060006000600070007000700080008000800090009000A000A000A000B000B000C000C000D000D000E000F009C
:402140000F00100011001100120013001400150016001700180019001A001B001C001D001F0020002100230024002600280029002B002D002F0031003400360038003B0051
:402180003D0040004300460049004C004F00530057005B005F00630067006C00700075007B00800086008C00920098009F00A600AD00B500BD00C500CE00D700E100EB00E5
:4021C000F50000010B011701240130013E014C015B016A017A018B019C01AF01C201D601EA01000217022E02470261027C029802B502D402F402160339035D038303AB03C8
:40220000D50300042D045D048E04C204F80430056B05A805E8052B067106BA0606075607A90700085B08B9081C098309EF09600AD50A500BD10B560CE20C740D0D0EAC0E20
:40224000520F0010B510731138120713DF13C014AB15A116A117AD18C419E91A1A1C581DA51E00206B21E52271240E26BD278029562B412D422F5A318933D1353338B03A2D
:40228000493D0040D542CB45E2481C4C7A4FFF52AC56825A845EB3621267A26B66706075927A0080AA85958BC3913798F59EFEA558AD04B508BD66C524CE44D7CCE0C0EA3A
:4022C00025F5FFFF00000000E5050000000000000000000000000000000000000000000000000000000000000000000000000000E5050000000000000000000000000000F2
:402300000000000000000000000000000000000000000000BD050000000000000100000000000000010000003C230000000000000000000001000000000000000300000076
:402340000000000000000000020000000000000001000000682300000000000000000000000000000000000004000000305100404000F051004010000000014000100014D4
:4023800001400006801A0140800100400140000A004C01400002005001402000001A01407407004880000000FF0001010202020203030303030303030404040404040404D0
:4023C000040404040404040405050505050505050505050505050505050505050505050505050505050505050606060606060606060606060606060606060606060606068D
:402400000606060606060606060606060606060606060606060606060606060606060606060606060606060607070707070707070707070707070707070707070707070704
:40244000070707070707070707070707070707070707070707070707070707070707070707070707070707070707070707070707070707070707070707070707070707079C
:402480000707070707070707070707070707070707070707070707070707070707070707070707070707070701000000B0240000000000000000000002000000000000002D
:4024C00000000000FFFFFFFF0000000000000000000000000000000000000000A08601000100000000000000000000000000000000000000010000000100000001000000B5
:4025000001000000010000000100000001000000800000000100000010000000040000000800000001000000020000000100000001000000100000000400000008000000D9
:4025400051010000BD0100007D04000051040000A9040000C11D0000C11D0000C11D0000C11D0000C11D00000000000000000000000000000000000001000000020000006F
:40258000616C726D5F316D730000000065765F6A6F79737469636B5F6F6E44617461000065765F636F6E74726F6C73706565645F6F6E44617461000074736B5F696E697438
:4025C0000000000074736B5F6261636B67726F756E64000074736B5F494F000074736B5F436F6E74726F6C0074736B5F4272616B656C69676874000043000000F8B500BFD2
:40260000F8BC08BC9E4670474D00000095090000F8B500BFF8BC08BC9E4670472900000030260000C880FF1FF8010000B00A00000000000000000000000000000000000085
:4026400040230000000000000000000014230000000000000000000000000000EC220000000000000000000000000000C42200007F800000030000000000E02EC05D00009F
:402680001800000000366E018025000000000000FFFFFFFFFFFFFFFFFFFFFFFFFFFFFFFFFFFFFFFFFFFFFFFF01000000020000000300000004000000FFFFFFFF00000000CA
:4026C000000000000400000002000000030000000100000001000000010000000100000001000000FFFFFFFFFFFFFFFFFFFFFFFFFFFFFFFFFFFFFFFFFFFFFFFFFFFFFFFFE8
:40270000FFFFFFFFFFFFFFFFFFFFFFFFFFFFFFFFFFFFFFFFFFFFFFFFFFFFFFFFFFFFFFFFFFFFFFFFFFFFFFFFFFFFFFFFFFFFFFFFFFFFFFFFFFFFFFFFFFFFFFFFFFFFFFFFD9
:40274000FFFFFFFFFFFFFFFFFFFFFFFFFFFFFFFFFFFFFFFFFFFFFFFFFFFFFFFFFFFFFFFFFFFFFFFFFFFFFFFFFFFFFFFFFFFFFFFFFFFFFFFFFFFFFFFFFFFFFFFF0300000092
:40278000030000000300000003000000030000008C250000A0250000B8250000C4250000D4250000DC250000E8250000608DFF1F00000000388BFF1F4C87FF1FFFFFFFFFF1
:4027C000000000000000000000000000000000000000000000000000000000000000000000000000F8250000000000000000000000000000000000000000000000000000BC
:402800000000000000000000000000000000000000000000000000000000000000000000000000005C82FF1F0000000000000000000000000000000000000000000000009C
:402840000000000000000000000000000000000000000000000000000000000000000000000000000000000000000000000000000000000000000000000000000000000058
:402880000000000000000000000000000000000000000000000000000000000000000000000000000000000000000000000000000000000000000000000000000000000018
:4028C00000000000000000000000000000000000000000000000000000000000000000000000000000000000000000000000000000000000000000000000000000000000D8
:402900000000000000000000000000000000000000000000000000000000000000000000000000000000000000000000000000000000000000000000000000000000000097
:020000040003F7
:0200000480007A
:400000000145004004520040015B00400364004002650040030301400505014034060140340701402B08014048090140280A0140460B0140440C0140420D0140230E014093
:400040002B0F0140021501400B160140361701402A1801403E1901400C1A0140421B01400840014009410140064201400143014002440140034501400A460140044701404E
:400080000548014001490140014C0140064D01400A50014002510140030101021110608064402784870D8A018D0F89388A728F80E410E604810482109B80E001EA08040110
:4000C00008010C0110011A011C0128013201580459045C115F018601870192029B019C08A60DB008B201B301B402B604BF04C020C106C5D1C702C813C9FFCAFFCBFFCDA02E
:40010000CF04D018D280D405D804D904DA04DB04DC10DF01E040E2C0E440E540E6C0E8C0EAC0ECC0EEC000040480052809020A010C410E4810201710180419101A911D0464
:400140002204284029282D202FA030013110328834013680371038883D20400448284901500C59015A8871028040811883808C408E8496109B809D04C0E4C2D9C444CAE76C
:40018000CCBFCE2AD004D204D60BE201E6041F01260135013601580459045C115F01820483018404850889108A108B208D408F8090089180934094019704980299209B10A7
:4001C0009D04A102A202A601A702A901AA08AF08B21FB3FFB808BB80BE04BF04D804D904DC21DF0100240180034004200544081009040B820E200F481040114012141504AF
:40020000160119081B041D401E021F40202023012404251026102704285029542A522D882F4030023210334434103748386039043A053B503C403D20806083058C208D40CD
:400240008F049060910492209540979099149A039B489C20A002A104A302A420A601B220B584B601B708C0EFC27FC4AFCADFCC7FCE3FE240051009030B040F08110A1304F8
:400280001503170419031B0C2201280229102E042F053004311032013402350F39023B203E103F015602573E580459045B0C5C215D105F01D203D302D804D904DB04DC1110
:4002C000DD10DF01004001080460050808600B900C200E02102212041301154017081840192D211222202AA02C202F403008322134443585380839803A103D403F1058109C
:400300005A205B046102680269046A206B406C046F067110720273017B028120902091809202944095609A949B089C149D11A008A420A621B002B308C0E5C2CFC4AFCACCDD
:40034000CCD7CE3ED602D801DE08E001E401EA0808010E0118011C01240128012E013001580459045C115F018014862089118A038B0E8C108D4C8F1390099210942C96114A
:4003800099119B469C1C9E229F4CA220A308A430A60CA980AD20AF03B020B10FB380B41FB54AB730B980BB22BE01BF04C024C106C6CBC70EC81CC9FFCAFFCBFFCEF0CF447F
:4003C000D00CD401D804D904DA04DB04DC22DD22DF01E6C0EA40EB02012002550310046006080AA20B100C200E020F041220130114041540170819201A401F0121402255CC
:4004000023402A812B082D402E083260340436013B503C403E203F04411042804620470848084B105250530858025A485B10668067018301902093019560962097409A0125
:400440009B089C149D11A420A601C0CFC2CDC4ECCA5DCCCCCE7CD005D204D60F030109030D0219031A012B0431033201350439023F014004474049FF4A074BFF4C404D2062
:400480004EF04F055008580459045A045C115D025F01604061A862406320D804D904DC11DF01014403090420050108510CA01004130814011709182019041B082101230812
:4004C000286129112B802C202D042F8830803104321033013425360139243B413D404101442047084B0152018884C057C2CBC4B6CAEFCCEFCE1FD001B402EC2058045904AE
:400500005C115F01D608D804D904DB04DC11DD90DF0100400210045005080720084809100A400C400E400F08132014081710284029282A102B042C402D20310133103509FC
:40054000371038503C503D205B8060028101824090409640984099289B90A110AA08AB10AC40AF20B520C0E5C2DFC442CAA7CCE5CE3CD608D808E204E601EA04EE085401EE
:40058000580459045B0C5C115D105F0181DF850C87D38BC38DC3950C99049A029DD39E019F0CA108A541A720A90FAA02ABD0AD82AE01B001B1C0B320B402B510B70FB92042
:4005C000BB80BE11D418D804D904DB04DC21DD20DF0101880344058409040A010B540F50124915401640170419101B0120202241230428212A022B042D88302832403504D8
:400600003601384839203B013D283F40448047025A025C80611063027F02810483028D048F4091409341998C9A409B04A114A201A302A810A980AD40B504C0AFC23FC4BBCE
:40064000CA5FCCCECE7FD611D80CDE10EA10920196029901A001AF03B003B302B701D804D90CDC19DF0100A408800A900B410E400F2010A811401702180C19011A111B04B0
:400680001E4020412118220127122E4031083201371038023994408141144B4052095901699470A872027F0284018508884089148A018C218D409280930194489520960114
:4006C0009C219E039F02A010A312A428A608A704B710C007C23DC41FCA10CC23CE0FD00FD208D601DE10E810EC2013011680324039083E80C430CC10CE6050045910811072
:400700008F01930195089680D4A0E620800494089680AD04E680EA1096807740DE0462029F40D8021B022608820283409F40A602A702AF02C608C8014401B208D004EE0189
:40074000208082409680C840E680B0409C0112808E80B001C408E202EC0400070A030C060E06100611011A021B011C061D010003100A00000012008CBC3F4200003F040000
:400780000001C300E70818703C24C18A00000000FF00000010000000080000001800000004000000203858061F0198C0000028000000014052040300010000CE30FFFFFF34
:4007C00062A0F0410C0000000000021304040404222200010000000000004002001030100010101200000000000000000000000000000000084040000003030080004080BE
:400800008000800000000000000B0B000000000000101000100000000001000000000000000000000000000000000000000000000000000000000000000000000000000071
:400840000000000000000000000000000000000000000000000000000000000000000000000000000000000000000000000000000000000000000000000000000000000078
:400880000000000000000000000000000000000000000000000000000000000000000000000000000000000000000000000000000000000000000000000000000000000038
:4008C00000000000000000000000000000000000000000000000000000000000000000000000000000000000000000000000000000000000000000000000000000000000F8
:4009000000000000000000000000000000000000000000000000000000000000000000000000000000000000000000000000000000000000000000000000000000000000B7
:0200000490006A
:0400000000004005B7
:0200000490105A
:04000000BC90ACAF55
:0200000490303A
:020000000E6090
:0200000490402A
:4000000000000000000000000000000000000000000000000000000000000000000000000000000000000000000000000000000000000000000000000000000000000000C0
:400040000000000000000000000000000000000000000000000000000000000000000000000000000000000000000000000000000000000000000000000000000000000080
:400080000000000000000000000000000000000000000000000000000000000000000000000000000000000000000000000000000000000000000000000000000000000040
:4000C0000000000000000000000000000000000000000000000000000000000000000000000000000000000000000000000000000000000000000000000000000000000000
:0200000490501A
:0C00000000012E16106900012E261EC9FA
:00000001FF